:020000040800F2
:1000000078060020190200082102000823020008D7
:10001000250200082702000829020008000000004D
:100020000000000000000000000000002B0200089B
:100030002D020008000000002F0200083102000815
:1000400033020008330200083302000833020008BC
:100050003302000833020008D5020008E503000857
:10006000330200083302000833020008330200089C
:10007000330200083302000833020008330200088C
:1000800033020008330200083302000800000000B9
:100090000000000000000000000000003302000823
:1000A000330200083302000833020008330200085C
:1000B000330200083302000833020008330200084C
:1000C000330200083302000833020008330200083C
:1000D0003302000833020008330200080000000069
:1000E0003302000833020008330200080000000059
:1000F00000000000000000000000000033020008C3
:100100000000000033020008330200083302000838
:1001100000000000000000000000000000000000DF
:1001200033020008330200083302000833020008DB
:100130003302000800000000000000000000000082
:100140000000000000000000000000003302000872
:1001500033020008330200083302000833020008AB
:100160003302000833020008000000000000000015
:10017000000000000000000000000000000000007F
:100180000000000033020008000000000000000032
:100190003302000800F002F800F02EF80AA090E800
:1001A000000C82448344AAF10107DA4501D100F032
:1001B00023F8AFF2090EBAE80F0013F0010F18BFD1
:1001C000FB1A43F001031847200B0000300B00001E
:1001D0000023002400250026103A28BF78C1FBD850
:1001E000520728BF30C148BF0B6070471FB500F0F1
:1001F0006EFD1FBD10B510BD00F031F81146FFF7C0
:10020000F5FF00F04FFD00F04FF803B4FFF7F2FFE9
:1002100003BC00F057F80000094880470948004730
:10022000FEE7FEE7FEE7FEE7FEE7FEE7FEE7FEE7A6
:10023000FEE7FEE704480549054A064B7047000003
:10024000FD050008950100087800002078060020D0
:10025000780200207802002070477047704775468A
:1002600000F02CF8AE4605006946534620F0070022
:10027000854618B020B5FFF7DDFFBDE820404FF000
:1002800000064FF000074FF000084FF0000BAC469F
:10029000ACE8C009ACE8C009ACE8C009ACE8C009EA
:1002A00021F007018D46704710B50446AFF300807A
:1002B0002046BDE81040FFF7A8BF00000048704787
:1002C0000000002001491820ABBEFEE72600020016
:1002D000704700002DE9F04743F60045C4F20105E0
:1002E000686940F001006861286820F0010028601A
:1002F000062000F08DF900F085FA40F21440C4F2B7
:100300000200016840F2740441F0F0010160C2F2A1
:1003100000042068012819D0F8B940F27008C2F230
:100320000008D8F8004040F26009C2F2000919F84C
:10033000040009EB040600F0BBFB16F801ACB0F1B9
:10034000FF3F11DD504600F0B3F845E000F080F9C2
:1003500000F0C4F8002020603EE000F0A7FC00F0B0
:10036000BDF80020206037E0022C2BDBA9F101074B
:1003700064420026B87800F09BFB013406EBD0768F
:10038000601C07F10107F5D1642000F02DFA022E60
:100390001BD1D8F800000138C8F80000642000F034
:1003A00023FAD8F80000262109F8001000F050F9CF
:1003B000D8F80000411CC8F8001009F800A000F0AF
:1003C0008DF809E0642000F00FFAD8F800004844E6
:1003D00010F8010C00F06CF8286840F0010028606B
:1003E000BDE8F087B0B543F60045C4F20105686981
:1003F00040F2104440F0020068612868C4F2020430
:1004000020F002002860062000F002F92068C005F4
:1004100004D4206880050AD5012401E04FF0FF34A0
:1004200000F016F9204600F04BFB00F057F8286862
:1004300040F002002860B0BDB0B51425C4F202053A
:1004400028600446286820F480602860286820F42A
:1004500000702860286840F480702860002000F058
:10046000C3F92868042C20F4807028604FF0010044
:1004700038BF022000F0B8F9B0BD000080B53820C8
:10048000FFF7DAFF642000F0AFF90620FFF7D4FF92
:10049000642000F0A9F90820FFF7CEFF642000F0E7
:1004A000A3F90F20FFF7C8FF642000F09DF980BD7D
:1004B0001421C4F202010860086840F480600860FA
:1004C000086820F400700860086840F480700860D4
:1004D000086820F4807008607047000070B5C02084
:1004E000FFF7AAFF642000F07FF910242020FFF717
:1004F000DFFF642000F078F9013CF7D1C020FFF75E
:100500009BFF642000F070F940F27004C2F2000416
:1005100020680128B8BF70BD40F260064FF0FF357B
:10052000C2F2000670194078FFF7C2FF642000F0A5
:100530005BF92068A91C01358142F3DB70BD000026
:1005400080B50120FFF778FF42F2107000F04CF9FF
:100550003820FFF771FF642000F046F95320FFF7C1
:10056000A7FF642000F040F96520FFF7A1FF642099
:1005700000F03AF96920FFF79BFF642000F034F99E
:100580006620FFF795FF642000F02EF96920FFF741
:100590008FFF642000F028F92D20FFF789FF6420E9
:1005A00000F022F96D20FFF783FF642000F01CF9B2
:1005B0006820FFF77DFF642000F016F96D20FFF73B
:1005C00077FF642000F010F96420FFF771FF6420CA
:1005D00000F00AF97020FFF76BFF642000F004F9C7
:1005E0007220FFF765FF642000F0FEF8C020FFF7DF
:1005F00023FF642000F0F8F880BD00004EF688501C
:10060000CEF20000016841F4700101607047000003
:1006100000F01F00012101FA00F04EF28021CEF21D
:10062000000108607047000000F01F00012101FA7E
:1006300000F04EF20011CEF2000108607047000099
:10064000E421C0F2E00161F31F2000210170704736
:100650002DE9F04F83B040F26009C2F2000999F829
:10066000000000F025FA013001D0002703E06420EB
:1006700000F0BAF8012740F27008C2F20008D8F87A
:100680000040A7421FDAD8F8005019F8070007F118
:10069000010A5545C8BFAA4600F00AFA4FF0000B00
:1006A000002815D40BEB8B017C1CAC4200EB410BFA
:1006B0000CDA09EB0700407800F0FAF90028274629
:1006C000F0D5274603E04FF0000B01E057462C46DB
:1006D00099F8000000F0ECF9013008BFCBF1000BF5
:1006E000A74253D019F807A0BAF1260F4ED0781CB4
:1006F000A04212DA07EB09003C1B471E002100BF95
:10070000B87801EB810500F0D3F9013400EB450125
:10071000601C07F10107F3D100E00021AAF12A00D3
:1007200005280ED8DFE800F003060D080D0B01FBCD
:100730000BFB06E08B4404E0ABEB010B01E09BFB01
:10074000F1FB00F0B3FABBF1000F22D0BBF1FF3F89
:100750002ADDBBF1010F34DB46F267640027C6F2E5
:10076000666401AD5BFB04F0811001EBD07606EB13
:100770008600ABEB400000F07BF9791CE855BBF13B
:10078000090F0F46B346EDDC01291DDA03B0BDE8C1
:10079000F08FD8F80000411CC8F80010302109F88B
:1007A000001003B0BDE8F08FD8F80000CBF1000BCB
:1007B000411CC8F800102D2109F80010BBF1010FF1
:1007C000CADA00210129E1DBD8F8002001A80138AC
:1007D000435C013909F8023002F10102F8DCC8F883
:1007E000002003B0BDE8F08F81B000900098012890
:1007F00006DB00BF00980138009000980028F9DC63
:1008000001B0704740F21040C4F202000168C9070D
:100810001DD1016889072DD40168490750D40168AA
:10082000090740F12381E02141600168090700F1D7
:10083000B28040F27000C2F2000001684A1C0260FF
:1008400040F26000C2F200002F2242547047E021C3
:1008500041600168C90720D140F27000C2F2000077
:1008600001684A1C026040F26000C2F200003722B8
:1008700042547047E02141600168890733D440F257
:100880007000C2F2000001684A1C026040F2600081
:10089000C2F20000382242547047D0214160016802
:1008A000C90733D140F27000C2F2000001684A1C4F
:1008B000026040F26000C2F20000342242547047ED
:1008C000E02141600168490733D440F27000C2F270
:1008D000000001684A1C026040F26000C2F20000A1
:1008E000392242547047D02141600168890733D4CE
:1008F00040F27000C2F2000001684A1C026040F23F
:100900006000C2F20000352242547047B0214160BD
:100910000168C90733D140F27000C2F200000168DB
:100920004A1C026040F26000C2F2000031224254D0
:100930007047D0214160016849073FD440F2700000
:10094000C2F2000001684A1C026040F26000C2F27C
:100950000000362242547047B02141600168890787
:100960003FD440F27000C2F2000001684A1C0260ED
:1009700040F26000C2F200003222425470477021FF
:1009800041600068C00771D140F27400C2F20000FB
:10099000022101607047D02141600168090733D40A
:1009A00040F27000C2F2000001684A1C026040F28E
:1009B0006000C2F200002A2242547047B021416018
:1009C0000168490733D440F27000C2F200000168A8
:1009D0004A1C026040F26000C2F20000332242541E
:1009E000704770214160006880073FD440F270007A
:1009F000C2F2000001684A1C026040F26000C2F2CC
:100A00000000302242547047B0214160016809075C
:100A100019D440F27000C2F2000001684A1C026062
:100A200040F26000C2F200002D2242547047702153
:100A300041600068400719D440F27400C2F200001F
:100A4000012101607047702141600068000748BFC4
:100A5000704740F27000C2F2000001684A1C026058
:100A600040F26000C2F200002B22425470470000A6
:100A700009280AD801463020DFE801F00805090BF3
:100A80000D0F1113171531207047262070473220A3
:100A90007047332070473420704735207047362028
:100AA0007047372070473920704738207047000062
:100AB0003038C0B2092884BF4FF0FF30704770470C
:100AC0002DE9F04782B040F2600AC2F2000A9AF8BB
:100AD000001081460846FFF7EBFF013001D00027E8
:100AE00003E06420FFF780FE012740F27008C2F2A5
:100AF0000008D8F80000874210DAD8F80040002635
:100B00001AF80700FFF7D4FF002808D406EB860187
:100B10000137A74200EB4106F2DB00E000269AF81D
:100B20000000FFF7C5FF013008BF764206EB09045D
:100B300000F0BCF804B3B4F1FF3F28DD012C31DB39
:100B400046F267690025C6F266696F4654FB09F0F4
:100B5000811001EBD07606EB8600A4EB4000FFF796
:100B600087FF691C7855092C0D463446EEDC0129B7
:100B70001BDA02B0BDE8F087D8F80000411CC8F8C5
:100B8000001030210AF8001002B0BDE8F087D8F854
:100B900000006442411CC8F800102D210AF8001022
:100BA000012CCDDA00210129E3DBD8F800206846CA
:100BB000013800BF435C01390AF8023002F101023A
:100BC000F8DCC8F8002002B0BDE8F08710B543F6A5
:100BD0003004C4F20204206845F2555140F001008F
:100BE00020602068C0F2150140F0020020602068FB
:100BF00040F0040020600020C4F20200016045F2D1
:100C00000051C0F20501C0F8001440F21440C4F2D3
:100C100002000021C0F8EC13AA21C0F20A0140F83A
:100C2000081C0A21C0F8EC13016841F0F0010160D2
:100C3000FFF724FC6420FFF7D7FDFFF781FC606914
:100C400040F48040606143F60800C4F2010001688E
:100C500041F002010160016841F020010160D0F81B
:100C6000F81341F00301C0F8F813D0F8001441F074
:100C70000301C0F8001462B60620FFF7E1FC07206C
:100C8000FFF7DEFC0620FFF7C3FC0720FFF7C0FCE0
:100C90000620FFF7C9FC0720FFF7C6FC00F006F8A6
:100CA00010BD0000FFF792FFFEE7000040F2700069
:100CB000C2F200000021016040F26000C2F20000B8
:100CC0004FF02631C0E90011C0E902117047F1EE82
:100CD000100A4FF6FF71C0F2C03120EA010040F067
:100CE0004070E1EE100A7047F80C00080000002088
:080CF00078060000D0010008A5
:0400000508000219D4
:00000001FF
